{
  "abi": [
    {
      "inputs": [
        {
          "internalType": "address[]",
          "name": "_admins",
          "type": "address[]"
        },
        {
          "internalType": "uint256",
          "name": "_totalSupply",
          "type": "uint256"
        }
      ],
      "stateMutability": "nonpayable",
      "type": "constructor"
    },
    {
      "inputs": [],
      "name": "notAdminOrOwner",
      "type": "error"
    },
    {
      "inputs": [],
      "name": "transferError",
      "type": "error"
    },
    {
      "inputs": [
        {
          "internalType": "uint256",
          "name": "amount",
          "type": "uint256"
        },
        {
          "internalType": "uint256",
          "name": "tier",
          "type": "uint256"
        }
      ],
      "name": "whiteTransferError",
      "type": "error"
    },
    {
      "anonymous": false,
      "inputs": [
        {
          "indexed": false,
          "internalType": "address",
          "name": "userAddress",
          "type": "address"
        },
        {
          "indexed": false,
          "internalType": "uint256",
          "name": "tier",
          "type": "uint256"
        }
      ],
      "name": "AddedToWhitelist",
      "type": "event"
    },
    {
      "anonymous": false,
      "inputs": [
        {
          "indexed": false,
          "internalType": "address",
          "name": "recipient",
          "type": "address"
        },
        {
          "indexed": false,
          "internalType": "uint256",
          "name": "amount",
          "type": "uint256"
        }
      ],
      "name": "Transfer",
      "type": "event"
    },
    {
      "anonymous": false,
      "inputs": [
        {
          "indexed": true,
          "internalType": "address",
          "name": "",
          "type": "address"
        }
      ],
      "name": "WhiteListTransfer",
      "type": "event"
    },
    {
      "anonymous": false,
      "inputs": [
        {
          "indexed": true,
          "internalType": "address",
          "name": "",
          "type": "address"
        },
        {
          "indexed": true,
          "internalType": "uint256",
          "name": "",
          "type": "uint256"
        }
      ],
      "name": "supplyChanged",
      "type": "event"
    },
    {
      "stateMutability": "payable",
      "type": "fallback"
    },
    {
      "inputs": [
        {
          "internalType": "address",
          "name": "_userAddrs",
          "type": "address"
        },
        {
          "internalType": "uint256",
          "name": "_tier",
          "type": "uint256"
        }
      ],
      "name": "addToWhitelist",
      "outputs": [],
      "stateMutability": "nonpayable",
      "type": "function"
    },
    {
      "inputs": [
        {
          "internalType": "uint256",
          "name": "",
          "type": "uint256"
        }
      ],
      "name": "administrators",
      "outputs": [
        {
          "internalType": "address",
          "name": "",
          "type": "address"
        }
      ],
      "stateMutability": "view",
      "type": "function"
    },
    {
      "inputs": [
        {
          "internalType": "address",
          "name": "_user",
          "type": "address"
        }
      ],
      "name": "balanceOf",
      "outputs": [
        {
          "internalType": "uint256",
          "name": "balance_",
          "type": "uint256"
        }
      ],
      "stateMutability": "view",
      "type": "function"
    },
    {
      "inputs": [
        {
          "internalType": "address",
          "name": "",
          "type": "address"
        }
      ],
      "name": "balances",
      "outputs": [
        {
          "internalType": "uint256",
          "name": "",
          "type": "uint256"
        }
      ],
      "stateMutability": "view",
      "type": "function"
    },
    {
      "inputs": [
        {
          "internalType": "address",
          "name": "sender",
          "type": "address"
        }
      ],
      "name": "getPaymentStatus",
      "outputs": [
        {
          "internalType": "bool",
          "name": "status_",
          "type": "bool"
        },
        {
          "internalType": "uint256",
          "name": "amount_",
          "type": "uint256"
        }
      ],
      "stateMutability": "view",
      "type": "function"
    },
    {
      "inputs": [
        {
          "internalType": "address",
          "name": "_recipient",
          "type": "address"
        },
        {
          "internalType": "uint256",
          "name": "_amount",
          "type": "uint256"
        },
        {
          "internalType": "string",
          "name": "_name",
          "type": "string"
        }
      ],
      "name": "transfer",
      "outputs": [
        {
          "internalType": "bool",
          "name": "status_",
          "type": "bool"
        }
      ],
      "stateMutability": "nonpayable",
      "type": "function"
    },
    {
      "inputs": [
        {
          "internalType": "address",
          "name": "_recipient",
          "type": "address"
        },
        {
          "internalType": "uint256",
          "name": "_amount",
          "type": "uint256"
        }
      ],
      "name": "whiteTransfer",
      "outputs": [],
      "stateMutability": "nonpayable",
      "type": "function"
    },
    {
      "inputs": [
        {
          "internalType": "address",
          "name": "",
          "type": "address"
        }
      ],
      "name": "whitelist",
      "outputs": [
        {
          "internalType": "uint256",
          "name": "",
          "type": "uint256"
        }
      ],
      "stateMutability": "view",
      "type": "function"
    },
    {
      "stateMutability": "payable",
      "type": "receive"
    }
  ],
  "bytecode": {
    "object": "0x60a06040523480156200001157600080fd5b5060405162000dbb38038062000dbb83398101604081905262000034916200026d565b3360805281516200004d906005906020850190620001b9565b5060005b60058160ff161015620001b057600160046000858460ff16815181106200007c576200007c62000347565b60200260200101516001600160a01b03166001600160a01b0316815260200190815260200160002060006101000a81548160ff021916908315150217905550336001600160a01b0316838260ff1681518110620000dd57620000dd62000347565b60200260200101516001600160a01b031603620001545733600090815260016020526040902082905582518290849060ff841690811062000122576200012262000347565b60200260200101516001600160a01b031660008051602062000d9b83398151915260405160405180910390a36200019b565b6000838260ff16815181106200016e576200016e62000347565b60200260200101516001600160a01b031660008051602062000d9b83398151915260405160405180910390a35b80620001a7816200035d565b91505062000051565b5050506200038b565b82805482825590600052602060002090810192821562000211579160200282015b828111156200021157825182546001600160a01b0319166001600160a01b03909116178255602090920191600190910190620001da565b506200021f92915062000223565b5090565b5b808211156200021f576000815560010162000224565b634e487b7160e01b600052604160045260246000fd5b80516001600160a01b03811681146200026857600080fd5b919050565b600080604083850312156200028157600080fd5b82516001600160401b03808211156200029957600080fd5b818501915085601f830112620002ae57600080fd5b8151602082821115620002c557620002c56200023a565b8160051b604051601f19603f83011681018181108682111715620002ed57620002ed6200023a565b6040529283528183019350848101820192898411156200030c57600080fd5b948201945b838610156200033557620003258662000250565b8552948201949382019362000311565b97909101519698969750505050505050565b634e487b7160e01b600052603260045260246000fd5b600060ff821660ff81036200038257634e487b7160e01b600052601160045260246000fd5b60010192915050565b6080516109f4620003a760003960006106a301526109f46000f3fe60806040526004361061007f5760003560e01c8063888b22841161004e578063888b2284146101a45780639b19251a146101f4578063d89d151014610221578063ea28d32014610259576100b2565b8063214405fc146100de57806327e235e3146100fe57806356b8c7241461013e57806370a082311461016e576100b2565b366100b25760405133903480156108fc02916000818181858888f193505050501580156100b0573d6000803e3d6000fd5b005b60405133903480156108fc02916000818181858888f193505050501580156100b0573d6000803e3d6000fd5b3480156100ea57600080fd5b506100b06100f9366004610702565b610279565b34801561010a57600080fd5b5061012b61011936600461072c565b60016020526000908152604090205481565b6040519081526020015b60405180910390f35b34801561014a57600080fd5b5061015e61015936600461074e565b6102f4565b6040519015158152602001610135565b34801561017a57600080fd5b5061012b61018936600461072c565b6001600160a01b031660009081526001602052604090205490565b3480156101b057600080fd5b506101dd6101bf36600461072c565b6001600160a01b031660009081526007602052604090205480151591565b604080519215158352602083019190915201610135565b34801561020057600080fd5b5061012b61020f36600461072c565b60036020526000908152604090205481565b34801561022d57600080fd5b5061024161023c3660046107d5565b610538565b6040516001600160a01b039091168152602001610135565b34801561026557600080fd5b506100b0610274366004610702565b610562565b61028161067e565b60fe81111561028f57600080fd5b600381111561029c575060035b6001600160a01b038216600081815260036020908152604091829020849055815192835282018390527f62c1e066774519db9fe35767c15fc33df2f016675b7cc0c330ed185f286a2d52910160405180910390a15050565b33600090815260016020526040812054848110806103125750600883115b156103305760405163ef992d5960e01b815260040160405180910390fd5b6001600160a01b038616600090815260016020526040902054336103548784610804565b9250610360878361081d565b3360009081526001602090815260408083208790556001600160a01b038c168084529281902084905580519283529082018a90529193507f69ca02dd4edd7bf0a4abb9ed3b7af3f14778db5d61921c7dc7cd545266326de2910160405180910390a16040805160e0810182526000602080830182905282840182905260608084015260a0830191909152600182526001600160a01b038b16608083015260c082018a90528251601f89018290048202810182019093528783529091908890889081908401838280828437600092018290525060608601949094525050815482915061044a90610846565b91829055506020808301919091526001600160a01b03831660009081526002825260408120805460018181018355918352929091208351600790930201805484939192839160ff1916908360048111156104a6576104a6610830565b021790555060208201516001820155604082015160028201805460ff1916911515919091179055606082015160038201906104e190826108fe565b5060808201516004820180546001600160a01b039283166001600160a01b03199182161790915560a084015160058401805491909316911617905560c0909101516006909101555060019350505050949350505050565b6005818154811061054857600080fd5b6000918252602090912001546001600160a01b0316905081565b336000908152600360209081526040808320546001909252909120548281108061058d575060038311155b806105985750600182105b806105a35750600382115b156105cf5760405163490ef7d760e01b8152600481018490526024810183905260440160405180910390fd5b6001600160a01b0384166000908152600160209081526040808320543384526007909252909120849055826106048584610804565b61060e919061081d565b3360009081526001602052604090205582610629858361081d565b6106339190610804565b6001600160a01b03861660008181526001602052604080822093909355915190917f98eaee7299e9cbfa56cf530fd3a0c6dfa0ccddf4f837b8f025651ad9594647b391a25050505050565b3360009081526004602052604090205460ff1615806106c65750336001600160a01b037f00000000000000000000000000000000000000000000000000000000000000001614155b156106e457604051631734195f60e21b815260040160405180910390fd5b565b80356001600160a01b03811681146106fd57600080fd5b919050565b6000806040838503121561071557600080fd5b61071e836106e6565b946020939093013593505050565b60006020828403121561073e57600080fd5b610747826106e6565b9392505050565b6000806000806060858703121561076457600080fd5b61076d856106e6565b935060208501359250604085013567ffffffffffffffff8082111561079157600080fd5b818701915087601f8301126107a557600080fd5b8135818111156107b457600080fd5b8860208285010111156107c657600080fd5b95989497505060200194505050565b6000602082840312156107e757600080fd5b5035919050565b634e487b7160e01b600052601160045260246000fd5b81810381811115610817576108176107ee565b92915050565b80820180821115610817576108176107ee565b634e487b7160e01b600052602160045260246000fd5b600060018201610858576108586107ee565b5060010190565b634e487b7160e01b600052604160045260246000fd5b600181811c9082168061088957607f821691505b6020821081036108a957634e487b7160e01b600052602260045260246000fd5b50919050565b601f8211156108f957600081815260208120601f850160051c810160208610156108d65750805b601f850160051c820191505b818110156108f5578281556001016108e2565b5050505b505050565b815167ffffffffffffffff8111156109185761091861085f565b61092c816109268454610875565b846108af565b602080601f83116001811461096157600084156109495750858301515b600019600386901b1c1916600185901b1785556108f5565b600085815260208120601f198616915b8281101561099057888601518255948401946001909101908401610971565b50858210156109ae5787850151600019600388901b60f8161c191681555b5050505050600190811b0190555056fea2646970667358221220df83e5548dde318a7fb2ba0f8fbd438fac3b0778a04f7ad4dce9ae7d0034c8ce64736f6c63430008130033fbd610cf0373947747ba15effd5e459c81db984f8723671458c0e8624428ab04",
    "linkReferences": {}
  },
  "methodIdentifiers": {
    "addToWhitelist(address,uint256)": "214405fc",
    "administrators(uint256)": "d89d1510",
    "balanceOf(address)": "70a08231",
    "balances(address)": "27e235e3",
    "getPaymentStatus(address)": "888b2284",
    "transfer(address,uint256,string)": "56b8c724",
    "whiteTransfer(address,uint256)": "ea28d320",
    "whitelist(address)": "9b19251a"
  },
  "id": 17
}